{
  "contractName": "SwapFactory",
  "abi": [
    {
      "inputs": [],
      "payable": false,
      "stateMutability": "nonpayable",
      "type": "constructor"
    },
    {
      "anonymous": false,
      "inputs": [
        {
          "indexed": false,
          "internalType": "uint256",
          "name": "Id",
          "type": "uint256"
        },
        {
          "indexed": false,
          "internalType": "uint256",
          "name": "rateId",
          "type": "uint256"
        },
        {
          "indexed": false,
          "internalType": "address",
          "name": "short",
          "type": "address"
        },
        {
          "indexed": false,
          "internalType": "address",
          "name": "long",
          "type": "address"
        },
        {
          "indexed": false,
          "internalType": "uint256",
          "name": "amount",
          "type": "uint256"
        },
        {
          "indexed": false,
          "internalType": "uint256",
          "name": "time",
          "type": "uint256"
        },
        {
          "indexed": false,
          "internalType": "address",
          "name": "swapAddr",
          "type": "address"
        }
      ],
      "name": "createSwapEvent",
      "type": "event"
    },
    {
      "constant": true,
      "inputs": [
        {
          "internalType": "uint256",
          "name": "",
          "type": "uint256"
        }
      ],
      "name": "rateMapp",
      "outputs": [
        {
          "internalType": "uint256",
          "name": "time",
          "type": "uint256"
        },
        {
          "internalType": "uint256",
          "name": "Crate",
          "type": "uint256"
        }
      ],
      "payable": false,
      "stateMutability": "view",
      "type": "function"
    },
    {
      "constant": true,
      "inputs": [
        {
          "internalType": "uint256",
          "name": "",
          "type": "uint256"
        }
      ],
      "name": "swaps",
      "outputs": [
        {
          "internalType": "address",
          "name": "",
          "type": "address"
        }
      ],
      "payable": false,
      "stateMutability": "view",
      "type": "function"
    },
    {
      "constant": true,
      "inputs": [],
      "name": "viewOwer",
      "outputs": [
        {
          "internalType": "address",
          "name": "",
          "type": "address"
        }
      ],
      "payable": false,
      "stateMutability": "view",
      "type": "function"
    },
    {
      "constant": false,
      "inputs": [
        {
          "internalType": "address",
          "name": "_short",
          "type": "address"
        },
        {
          "internalType": "address",
          "name": "_long",
          "type": "address"
        },
        {
          "internalType": "uint256",
          "name": "_amount",
          "type": "uint256"
        },
        {
          "internalType": "uint256",
          "name": "_time",
          "type": "uint256"
        }
      ],
      "name": "createSwap",
      "outputs": [
        {
          "internalType": "address",
          "name": "",
          "type": "address"
        }
      ],
      "payable": false,
      "stateMutability": "nonpayable",
      "type": "function"
    },
    {
      "constant": true,
      "inputs": [
        {
          "internalType": "uint256",
          "name": "id",
          "type": "uint256"
        }
      ],
      "name": "viewSwapAddress",
      "outputs": [
        {
          "internalType": "address",
          "name": "",
          "type": "address"
        }
      ],
      "payable": false,
      "stateMutability": "view",
      "type": "function"
    }
  ],
  "bytecode": "0x60806040526032600155600680546001600160a01b031990811673174d45cae03c4ab03897ea6cb5d46325ee20fe231791829055600780549091166001600160a01b039290921691909117905534801561005857600080fd5b50600380546001600160a01b03191633179055600080526004602052427f17ef568e3e12ab5b9c7254a8d58478811de00f9e6eb34345acd53bf8fd09d3ec5560327f17ef568e3e12ab5b9c7254a8d58478811de00f9e6eb34345acd53bf8fd09d3ed556109ba806100ca6000396000f3fe608060405234801561001057600080fd5b50600436106100575760003560e01c806308dec1611461005c578063609813a81461009557806370de0b8c1461009d578063f09c5829146100d9578063fca6d597146100f6575b600080fd5b6100796004803603602081101561007257600080fd5b503561012c565b604080516001600160a01b039092168252519081900360200190f35b610079610147565b610079600480360360808110156100b357600080fd5b506001600160a01b03813581169160208101359091169060408101359060600135610156565b610079600480360360208110156100ef57600080fd5b50356102ed565b6101136004803603602081101561010c57600080fd5b5035610308565b6040805192835260208301919091528051918290030190f35b6000908152600560205260409020546001600160a01b031690565b6003546001600160a01b031690565b600754604080516319e6258160e01b81529051600092879287928792879287926001600160a01b03909216916319e6258191600480820192602092909190829003018186803b1580156101a857600080fd5b505afa1580156101bc573d6000803e3d6000fd5b505050506040513d60208110156101d257600080fd5b50516040519091506000908190839088908890889088906101f290610321565b9485526001600160a01b0393841660208601529190921660408085019190915260608401929092526080830152519081900360a001906000f08015801561023d573d6000803e3d6000fd5b506002805460009081526005602090815260409182902080546001600160a01b038087166001600160a01b03199092168217909255935483519081529182018890528b8116828401528a1660608201526080810189905260a0810188905260c0810192909252519193508392507faeb883a944ee445c2b983f1be79d25d236adea51c5acc5804e2639e6682ec89a919081900360e00190a1506002805460010190559a9950505050505050505050565b6005602052600090815260409020546001600160a01b031681565b6004602052600090815260409020805460019091015482565b6106578061032f8339019056fe60806040526009805474174d45cae03c4ab03897ea6cb5d46325ee20fe2300610100600160a81b03199091161790819055600a80546001600160a01b0319166101009092046001600160a01b031691909117905534801561005f57600080fd5b50604051610657380380610657833981810160405260a081101561008257600080fd5b5080516020820151604083015160608401516080909401516000938455600180546001600160a01b039485166001600160a01b03199182161790915560028054949093169316929092179055600392909255600482905542600581905590910160065560078190556008556009805460ff19169055610551806101066000396000f3fe608060405234801561001057600080fd5b50600436106100ea5760003560e01c806345d3396b1161008c578063bef6a38411610066578063bef6a384146101f6578063fac3840b146101fe578063fea9b8bf14610206578063ffd34ad51461020e576100ea565b806345d3396b146101de57806378e97925146101e6578063aa8c217c146101ee576100ea565b80632d9cbc62116100c85780632d9cbc62146101915780633197cbb6146101b257806338bea4cb146101ba5780633bf3301c146101c2576100ea565b806307bfce37146100ef57806316ada5471461011357806327ff1f0b1461012d575b600080fd5b6100f7610216565b604080516001600160a01b039092168252519081900360200190f35b61011b610225565b60408051918252519081900360200190f35b61013561022b565b604080519a8b526001600160a01b03998a1660208c015297909816898801526060890195909552608088019390935260a087019190915260c086015260e085015261010084015290151561012083015251908190036101400190f35b6101996102c7565b6040805192835260208301919091528051918290030190f35b61011b61041a565b6100f7610420565b6101ca61042f565b604080519115158252519081900360200190f35b61011b610438565b61011b61043e565b61011b610444565b61011b61044a565b6100f7610450565b6101ca610464565b61011b610516565b6002546001600160a01b031681565b60045481565b6000806000806000806000806000806102426102c7565b6007600060086000849190505583919050555050600054600160009054906101000a90046001600160a01b0316600260009054906101000a90046001600160a01b0316600354600454600554600654600754600854600960009054906101000a900460ff16995099509950995099509950995099509950995090919293949596979899565b6000806000600a60009054906101000a90046001600160a01b03166001600160a01b03166319e625816040518163ffffffff1660e01b815260040160206040518083038186803b15801561031a57600080fd5b505afa15801561032e573d6000803e3d6000fd5b505050506040513d602081101561034457600080fd5b505160075460085460005492935090916001015b8360010181101561040157600a54604080516305c65a9b60e21b81526004810184905290516000926001600160a01b0316916317196a6c916024808301926060929190829003018186803b1580156103af57600080fd5b505afa1580156103c3573d6000803e3d6000fd5b505050506040513d60608110156103d957600080fd5b50604001516003546103e8918102829004959095019460320204929092019150600101610358565b5060078290556008819055600092909255925090509091565b60065481565b6001546001600160a01b031681565b60095460ff1681565b60005481565b60055481565b60035481565b60075481565b60095461010090046001600160a01b031690565b6000426006541061047457600080fd5b600a60009054906101000a90046001600160a01b03166001600160a01b03166319e625816040518163ffffffff1660e01b815260040160206040518083038186803b1580156104c257600080fd5b505afa1580156104d6573d6000803e3d6000fd5b505050506040513d60208110156104ec57600080fd5b50516000541015610502576104ff6102c7565b50505b506009805460ff1916600190811790915590565b6008548156fea265627a7a72315820fe9cf2f5cc3fa51bfe67f2e99a854f8be6a5139f698b713096fd7058c7fadaad64736f6c634300050c0032a265627a7a72315820238af6651955334a652c25be5c40ca9b320d59c58e5ba189cbe10fa4de89516764736f6c634300050c0032",
  "source": "import \"./Swap.sol\";\r\nimport \"./interface/IRate.sol\";\r\n\r\npragma solidity ^0.5.12;\r\n\r\ncontract SwapFactory {\r\n\r\n  uint256 private ID ;\r\n  uint256 fixedRate = 50; //放大1000倍\r\n  uint256 private swapID;\r\n  address private owner;\r\n\r\n     struct Rate {\r\n    uint256 time;\r\n    uint256 Crate;\r\n\r\n  }\r\n\r\n    mapping (uint256 => Rate) public rateMapp;\r\n    mapping (uint256 => address) public swaps;\r\n\r\n    event createSwapEvent(uint256 Id,uint256 rateId,address short, address long, uint256 amount,uint256 time, address swapAddr);\r\n\r\n     constructor ()  public {\r\n\r\n        owner = msg.sender;\r\n        rateMapp[0].time = now;\r\n        rateMapp[0].Crate = 50;\r\n\r\n     }\r\n\r\n      modifier onlyOwner() {\r\n        require(msg.sender == owner, \"Ownable: caller is not the owner\");\r\n          _;\r\n      }\r\n\r\n   function viewOwer() public view returns(address){\r\n\r\n    return owner;\r\n\r\n  }\r\n\r\n\r\n  address  RateAddr = 0x174d45Cae03c4aB03897Ea6cB5d46325Ee20Fe23;\r\n  IRate  RateContract =  IRate(RateAddr);\r\n\r\n\r\n function createSwap(address _short, address _long, uint256 _amount, uint256 _time )  public returns(address)  {\r\n\r\n   address short = _short;\r\n   address long = _long;\r\n   uint256 amount = _amount;\r\n   uint256 time = _time;\r\n   uint256 id = RateContract.currentRateId() ;\r\n   address SwapAddr;\r\n   Swap  s = new Swap(id,short,long,amount,time);\r\n   SwapAddr = address(s);\r\n   swaps[swapID] = SwapAddr;\r\n    emit createSwapEvent(swapID,id,short,long,amount,time,SwapAddr);\r\n   swapID ++;\r\n\r\n   return SwapAddr;\r\n}\r\n\r\nfunction viewSwapAddress(uint256 id) public view returns (address) {\r\n\r\n  return swaps[id];\r\n\r\n}\r\n\r\n}\r\n",
  "sourcePath": "C:\\Users\\15227\\Desktop\\rateDapp\\contracts\\SwapFactory.sol",
  "compiler": {
    "name": "solc",
    "version": "0.5.12+commit.7709ece9.Emscripten.clang"
  },
  "schemaVersion": "3.0.23",
  "updatedAt": "2020-04-12T10:52:36.552Z",
  "networkType": "ethereum",
  "devdoc": {
    "methods": {}
  },
  "userdoc": {
    "methods": {}
  }
}