{
  "contractName": "Swap",
  "abi": [
    {
      "inputs": [
        {
          "internalType": "uint256",
          "name": "_rateId",
          "type": "uint256"
        },
        {
          "internalType": "address",
          "name": "_short",
          "type": "address"
        },
        {
          "internalType": "address",
          "name": "_long",
          "type": "address"
        },
        {
          "internalType": "uint256",
          "name": "_amount",
          "type": "uint256"
        },
        {
          "internalType": "uint256",
          "name": "_time",
          "type": "uint256"
        }
      ],
      "payable": false,
      "stateMutability": "nonpayable",
      "type": "constructor"
    },
    {
      "constant": true,
      "inputs": [],
      "name": "amount",
      "outputs": [
        {
          "internalType": "uint256",
          "name": "",
          "type": "uint256"
        }
      ],
      "payable": false,
      "stateMutability": "view",
      "type": "function"
    },
    {
      "constant": true,
      "inputs": [],
      "name": "endTime",
      "outputs": [
        {
          "internalType": "uint256",
          "name": "",
          "type": "uint256"
        }
      ],
      "payable": false,
      "stateMutability": "view",
      "type": "function"
    },
    {
      "constant": true,
      "inputs": [],
      "name": "fixedAmount",
      "outputs": [
        {
          "internalType": "uint256",
          "name": "",
          "type": "uint256"
        }
      ],
      "payable": false,
      "stateMutability": "view",
      "type": "function"
    },
    {
      "constant": true,
      "inputs": [],
      "name": "floatAmount",
      "outputs": [
        {
          "internalType": "uint256",
          "name": "",
          "type": "uint256"
        }
      ],
      "payable": false,
      "stateMutability": "view",
      "type": "function"
    },
    {
      "constant": true,
      "inputs": [],
      "name": "long",
      "outputs": [
        {
          "internalType": "address",
          "name": "",
          "type": "address"
        }
      ],
      "payable": false,
      "stateMutability": "view",
      "type": "function"
    },
    {
      "constant": true,
      "inputs": [],
      "name": "rateId",
      "outputs": [
        {
          "internalType": "uint256",
          "name": "",
          "type": "uint256"
        }
      ],
      "payable": false,
      "stateMutability": "view",
      "type": "function"
    },
    {
      "constant": true,
      "inputs": [],
      "name": "short",
      "outputs": [
        {
          "internalType": "address",
          "name": "",
          "type": "address"
        }
      ],
      "payable": false,
      "stateMutability": "view",
      "type": "function"
    },
    {
      "constant": true,
      "inputs": [],
      "name": "startTime",
      "outputs": [
        {
          "internalType": "uint256",
          "name": "",
          "type": "uint256"
        }
      ],
      "payable": false,
      "stateMutability": "view",
      "type": "function"
    },
    {
      "constant": true,
      "inputs": [],
      "name": "tf",
      "outputs": [
        {
          "internalType": "bool",
          "name": "",
          "type": "bool"
        }
      ],
      "payable": false,
      "stateMutability": "view",
      "type": "function"
    },
    {
      "constant": true,
      "inputs": [],
      "name": "time",
      "outputs": [
        {
          "internalType": "uint256",
          "name": "",
          "type": "uint256"
        }
      ],
      "payable": false,
      "stateMutability": "view",
      "type": "function"
    },
    {
      "constant": false,
      "inputs": [],
      "name": "viewSwap",
      "outputs": [
        {
          "internalType": "uint256",
          "name": "",
          "type": "uint256"
        },
        {
          "internalType": "address",
          "name": "",
          "type": "address"
        },
        {
          "internalType": "address",
          "name": "",
          "type": "address"
        },
        {
          "internalType": "uint256",
          "name": "",
          "type": "uint256"
        },
        {
          "internalType": "uint256",
          "name": "",
          "type": "uint256"
        },
        {
          "internalType": "uint256",
          "name": "",
          "type": "uint256"
        },
        {
          "internalType": "uint256",
          "name": "",
          "type": "uint256"
        },
        {
          "internalType": "uint256",
          "name": "",
          "type": "uint256"
        },
        {
          "internalType": "uint256",
          "name": "",
          "type": "uint256"
        },
        {
          "internalType": "bool",
          "name": "",
          "type": "bool"
        }
      ],
      "payable": false,
      "stateMutability": "nonpayable",
      "type": "function"
    },
    {
      "constant": true,
      "inputs": [],
      "name": "viewRateAddress",
      "outputs": [
        {
          "internalType": "address",
          "name": "",
          "type": "address"
        }
      ],
      "payable": false,
      "stateMutability": "view",
      "type": "function"
    },
    {
      "constant": false,
      "inputs": [],
      "name": "viewAmount",
      "outputs": [
        {
          "internalType": "uint256",
          "name": "",
          "type": "uint256"
        },
        {
          "internalType": "uint256",
          "name": "",
          "type": "uint256"
        }
      ],
      "payable": false,
      "stateMutability": "nonpayable",
      "type": "function"
    },
    {
      "constant": false,
      "inputs": [],
      "name": "closeSwap",
      "outputs": [
        {
          "internalType": "bool",
          "name": "",
          "type": "bool"
        }
      ],
      "payable": false,
      "stateMutability": "nonpayable",
      "type": "function"
    }
  ],
  "bytecode": "0x60806040526009805474174d45cae03c4ab03897ea6cb5d46325ee20fe2300610100600160a81b03199091161790819055600a80546001600160a01b0319166101009092046001600160a01b031691909117905534801561005f57600080fd5b50604051610657380380610657833981810160405260a081101561008257600080fd5b5080516020820151604083015160608401516080909401516000938455600180546001600160a01b039485166001600160a01b03199182161790915560028054949093169316929092179055600392909255600482905542600581905590910160065560078190556008556009805460ff19169055610551806101066000396000f3fe608060405234801561001057600080fd5b50600436106100ea5760003560e01c806345d3396b1161008c578063bef6a38411610066578063bef6a384146101f6578063fac3840b146101fe578063fea9b8bf14610206578063ffd34ad51461020e576100ea565b806345d3396b146101de57806378e97925146101e6578063aa8c217c146101ee576100ea565b80632d9cbc62116100c85780632d9cbc62146101915780633197cbb6146101b257806338bea4cb146101ba5780633bf3301c146101c2576100ea565b806307bfce37146100ef57806316ada5471461011357806327ff1f0b1461012d575b600080fd5b6100f7610216565b604080516001600160a01b039092168252519081900360200190f35b61011b610225565b60408051918252519081900360200190f35b61013561022b565b604080519a8b526001600160a01b03998a1660208c015297909816898801526060890195909552608088019390935260a087019190915260c086015260e085015261010084015290151561012083015251908190036101400190f35b6101996102c7565b6040805192835260208301919091528051918290030190f35b61011b61041a565b6100f7610420565b6101ca61042f565b604080519115158252519081900360200190f35b61011b610438565b61011b61043e565b61011b610444565b61011b61044a565b6100f7610450565b6101ca610464565b61011b610516565b6002546001600160a01b031681565b60045481565b6000806000806000806000806000806102426102c7565b6007600060086000849190505583919050555050600054600160009054906101000a90046001600160a01b0316600260009054906101000a90046001600160a01b0316600354600454600554600654600754600854600960009054906101000a900460ff16995099509950995099509950995099509950995090919293949596979899565b6000806000600a60009054906101000a90046001600160a01b03166001600160a01b03166319e625816040518163ffffffff1660e01b815260040160206040518083038186803b15801561031a57600080fd5b505afa15801561032e573d6000803e3d6000fd5b505050506040513d602081101561034457600080fd5b505160075460085460005492935090916001015b8360010181101561040157600a54604080516305c65a9b60e21b81526004810184905290516000926001600160a01b0316916317196a6c916024808301926060929190829003018186803b1580156103af57600080fd5b505afa1580156103c3573d6000803e3d6000fd5b505050506040513d60608110156103d957600080fd5b50604001516003546103e8918102829004959095019460320204929092019150600101610358565b5060078290556008819055600092909255925090509091565b60065481565b6001546001600160a01b031681565b60095460ff1681565b60005481565b60055481565b60035481565b60075481565b60095461010090046001600160a01b031690565b6000426006541061047457600080fd5b600a60009054906101000a90046001600160a01b03166001600160a01b03166319e625816040518163ffffffff1660e01b815260040160206040518083038186803b1580156104c257600080fd5b505afa1580156104d6573d6000803e3d6000fd5b505050506040513d60208110156104ec57600080fd5b50516000541015610502576104ff6102c7565b50505b506009805460ff1916600190811790915590565b6008548156fea265627a7a72315820fe9cf2f5cc3fa51bfe67f2e99a854f8be6a5139f698b713096fd7058c7fadaad64736f6c634300050c0032",
  "source": "\r\nimport \"./interface/IRate.sol\";\r\npragma solidity ^0.5.12;\r\n\r\ncontract Swap {\r\n\r\n       uint256 public rateId;\r\n       address public short;\r\n   \t   address public long;\r\n       uint256 public amount;\r\n       uint256 public time;\r\n   \t   uint256 public startTime;\r\n   \t   uint256 public endTime;\r\n       uint256 public floatAmount;\r\n       uint256 public fixedAmount;\r\n       bool public tf;\r\n       address  RateAddr =0x174d45Cae03c4aB03897Ea6cB5d46325Ee20Fe23;\r\n\r\n       IRate  RateContract =  IRate(RateAddr);\r\n       function viewSwap() public  returns (uint256,address,address,uint256,uint256,uint256,uint256,uint256,uint256,bool) {\r\n              (floatAmount, fixedAmount) = viewAmount();\r\n\r\n            return (rateId,short,long,amount,time,startTime,endTime,floatAmount,fixedAmount,tf);\r\n       }\r\n\r\n    constructor(uint256 _rateId,address _short,address _long,uint256 _amount,uint256 _time) public {\r\n      rateId = _rateId;\r\n      short = _short;\r\n      long = _long;\r\n      amount = _amount;\r\n      time = _time;\r\n      startTime = now;\r\n      endTime = startTime + time;\r\n      floatAmount = 0;\r\n      fixedAmount = 0;\r\n      tf = false;\r\n\r\n    }\r\n\r\nfunction viewRateAddress() public view returns (address) {\r\n\r\n  return  RateAddr;\r\n\r\n}\r\n\r\n    function viewAmount() public  returns (uint256,uint256) {\r\n\r\n    uint256 newRate = RateContract.currentRateId();\r\n    uint256 newFloat = floatAmount;\r\n    uint256 newFixed = fixedAmount ;\r\n\r\n    for(uint256 i = rateId + 1 ; i < newRate + 1; i++){\r\n         uint256 rate;\r\n        (,,rate) = RateContract.viewRate(i);\r\n\r\n         newFloat = newFloat + amount * rate / 1000;\r\n         newFixed = newFixed + amount * 50 / 1000;\r\n      }\r\n\r\n      floatAmount = newFloat;\r\n    fixedAmount = newFixed;\r\n     rateId = newRate;\r\n\r\n  return (floatAmount,fixedAmount);\r\n}\r\n\r\n\r\nfunction closeSwap() public returns (bool ) {\r\n       require(endTime < now);\r\n\r\n       if(rateId < RateContract.currentRateId()){\r\n           viewAmount();\r\n       }\r\n       tf = true;\r\n       return true;\r\n}\r\n\r\n\r\n}\r\n",
  "sourcePath": "C:\\Users\\15227\\Desktop\\rateDapp\\contracts\\Swap.sol",
  "compiler": {
    "name": "solc",
    "version": "0.5.12+commit.7709ece9.Emscripten.clang"
  },
  "schemaVersion": "3.0.23",
  "updatedAt": "2020-04-12T10:52:36.559Z",
  "networkType": "ethereum",
  "devdoc": {
    "methods": {}
  },
  "userdoc": {
    "methods": {}
  }
}