{
  "contractName": "CRate",
  "abi": [
    {
      "inputs": [],
      "payable": false,
      "stateMutability": "nonpayable",
      "type": "constructor"
    },
    {
      "constant": true,
      "inputs": [],
      "name": "viewOwer",
      "outputs": [
        {
          "internalType": "address",
          "name": "",
          "type": "address"
        }
      ],
      "payable": false,
      "stateMutability": "view",
      "type": "function"
    },
    {
      "constant": true,
      "inputs": [
        {
          "internalType": "uint256",
          "name": "id",
          "type": "uint256"
        }
      ],
      "name": "viewRate",
      "outputs": [
        {
          "internalType": "uint256",
          "name": "",
          "type": "uint256"
        },
        {
          "internalType": "uint256",
          "name": "",
          "type": "uint256"
        },
        {
          "internalType": "uint256",
          "name": "",
          "type": "uint256"
        }
      ],
      "payable": false,
      "stateMutability": "view",
      "type": "function"
    },
    {
      "constant": true,
      "inputs": [],
      "name": "currentRateId",
      "outputs": [
        {
          "internalType": "uint256",
          "name": "",
          "type": "uint256"
        }
      ],
      "payable": false,
      "stateMutability": "view",
      "type": "function"
    },
    {
      "constant": false,
      "inputs": [
        {
          "internalType": "uint256",
          "name": "_currentRate",
          "type": "uint256"
        }
      ],
      "name": "changeRate",
      "outputs": [],
      "payable": false,
      "stateMutability": "nonpayable",
      "type": "function"
    }
  ],
  "bytecode": "0x608060405234801561001057600080fd5b50600180546001600160a01b03191633179055600080526002602052427fac33ff75c19e70fe83507db0d683fd3465c996598dc972688b7ace676c89077b5560327fac33ff75c19e70fe83507db0d683fd3465c996598dc972688b7ace676c89077c55610255806100826000396000f3fe608060405234801561001057600080fd5b506004361061004c5760003560e01c806317196a6c1461005157806319e625811461008c578063609813a8146100a657806374e7493b146100ca575b600080fd5b61006e6004803603602081101561006757600080fd5b50356100e9565b60408051938452602084019290925282820152519081900360600190f35b61009461012c565b60408051918252519081900360200190f35b6100ae610132565b604080516001600160a01b039092168252519081900360200190f35b6100e7600480360360208110156100e057600080fd5b5035610141565b005b60008060006100f6610206565b50505060008281526002602090815260409182902082518084019093528054808452600190910154929091018290529293909150565b60005490565b6001546001600160a01b031690565b6001546001600160a01b031633146101a0576040805162461bcd60e51b815260206004820181905260248201527f4f776e61626c653a2063616c6c6572206973206e6f7420746865206f776e6572604482015290519081900360640190fd5b6101a8610206565b5060008054815260026020908152604091829020825180840190935280548084526001909101549183019190915242600a909101106101e657600080fd5b506000805460019081018083558252600260205260409091204281550155565b60405180604001604052806000815260200160008152509056fea265627a7a7231582026e0d0e1838b5c234947b82d6ec3fcb284d96e40aed41f3c9ad7791545cd018b64736f6c634300050c0032",
  "source": "\r\npragma solidity ^0.5.12;\r\n\r\ncontract CRate {\r\n\r\n  uint256 private ID ;\r\n  address private owner;\r\n\r\n     struct Rate {\r\n    uint256 time;\r\n    uint256 Crate;\r\n\r\n  }\r\n\r\n    mapping (uint256 => Rate) private rateMapp;\r\n\r\n     constructor ()  public {\r\n\r\n        owner = msg.sender;\r\n        rateMapp[0].time = now;\r\n        rateMapp[0].Crate = 50;\r\n\r\n     }\r\n\r\n      modifier onlyOwner() {\r\n        require(msg.sender == owner, \"Ownable: caller is not the owner\");\r\n          _;\r\n      }\r\n\r\n   function viewOwer() public view returns(address){\r\n\r\n    return owner;\r\n\r\n  }\r\n\r\n\r\nfunction viewRate(uint256 id) public view returns (uint256,uint256,uint256) {\r\n\r\n  Rate memory r = rateMapp[id];\r\n  uint256 t = r.time;\r\n  uint256 ra = r.Crate;\r\n  return (id,t,ra);\r\n\r\n}\r\n\r\nfunction currentRateId() public view returns(uint256) {\r\n    return ID;\r\n}\r\n\r\nfunction changeRate(uint256 _currentRate)  public  onlyOwner{\r\n    Rate memory r1 = rateMapp[ID];\r\n    require(r1.time + 10 < now);\r\n    ID++;\r\n     Rate storage r2 = rateMapp[ID];\r\n     r2.time = now;\r\n     r2.Crate = _currentRate;\r\n\r\n}\r\n\r\n\r\n}\r\n",
  "sourcePath": "C:\\Users\\15227\\Desktop\\rateDemo\\contracts\\CRate.sol",
  "compiler": {
    "name": "solc",
    "version": "0.5.12+commit.7709ece9.Emscripten.clang"
  },
  "schemaVersion": "3.0.23",
  "updatedAt": "2020-04-12T10:51:07.517Z",
  "networkType": "ethereum",
  "devdoc": {
    "methods": {}
  },
  "userdoc": {
    "methods": {}
  }
}